S016000047636343707050726F6A656374312E73726563D6
S11300000C9441010C94070A0C942E0A0C94690177
S11300100C9469010C9469010C9469010C94AA096B
S11300200C9469010C9469010C9469010C946901A4
S11300300C9469010C9469010C9469010C94690194
S11300400C94550A0C9469010C948A070C94C20709
S11300500C9469010C9469010C9469010C94690174
S11300600C9469010C946901504120506F776572BA
S113007009203D2025530D0A00435243204C656E50
S113008067746809203D2025530D0A004D6F64658F
S11300906C0909203D2025530D0A00446174612038
S11300A05261746509203D2025530D0A0044594EC0
S11300B050442F4645415455524500434F4E4649FE
S11300C0470052465F53455455500052465F4348DB
S11300D000454E5F52584144445200454E5F4141F1
S11300E00052585F50575F50302D360054585F41CE
S11300F04444520052585F414444525F50322D35BB
S11301000052585F414444525F50302D31000D0A73
S113011000253032780020307800255309256320EB
S11301203D000D0A0020307825303278002553092F
S11301302563203D004F4253455256455F54583D78
S1130140253032783A20504F4C535F434E543D256E
S113015078204152435F434E543D25780D0A0053A5
S113016054415455530909203D20307825303278C4
S11301702052585F44523D25782054585F44533DE3
S11301802578204D41585F52543D25782052585FC0
S1130190505F4E4F3D25782054585F46554C4C3D9A
S11301A025780D0A00000102030405111213141529
S11301B0160A0B0C0D0E0FD501CE01C701BF01505D
S11301C0415F48494748004C415F4D454400504118
S11301D05F4C4F570050415F4D494E00F101EA0119
S11301E0E2013136206269747300382062697473E5
S11301F00044697361626C6564000802FE016E521A
S11302004632344C30312B006E524632344C30314D
S11302100025021F0217023235304B425053003280
S11302204D42505300314D4250530002000000082B
S113023000020100000304070000000000000000A9
S11302400102040810204080010204081020010269
S11302500408102004040404040404040202020236
S11302600202030303030303000000002500280027
S11302702B0000000000240027002A004306F20798
S1130280620811241FBECFEFD8E0DEBFCDBF11E05E
S1130290A0E0B1E0E0EEFDE102C005900D92A432D1
S11302A0B107D9F721E0A4E2B1E001C01D92AE3E4E
S11302B0B207E1F711E0C1E4D1E004C02197FE01E7
S11302C00E94040CCE33D107C9F70E946E080C9427
S11302D0EE0E0C9400002CB52F7D2CBD2CB5237F85
S11302E02CBD2CB52C7F2CBD2DB52E7F2DBDFC0136
S11302F081810E94A50B0895FC0180810E94A50BB9
S11303000895EF92FF920F931F93CF93DF938C0185
S1130310C62FE42EF52ED22F60E070E00E946B0110
S1130320CF71CEBD00000DB407FEFDCFCEB59FEF5B
S11303309D0FDD2361F0EE2DFF2D3FEF3EBD00004C
S11303400DB407FEFDCF2EB521939150B8F761E0AF
S113035070E0C8010E946B018C2FDF91CF911F9137
S11303600F91FF90EF9008950F931F93CF938C01FB
S1130370C62F60E070E00E946B01CF71CEBD00001B
S11303800DB407FEFDCF8EB58FEF8EBD00000DB40A
S113039007FEFDCFCEB561E070E0C8010E946B019D
S11303A08C2FCF911F910F910895EF92FF920F938D
S11303B01F93CF93DF938C01C62FE42EF52ED22FFB
S11303C060E070E00E946B01CF71C062CEBD00009E
S11303D00DB407FEFDCFCEB59FEF9D0FDD2359F081
S11303E0EE2DFF2D21912EBD00000DB407FEFDCF93
S11303F02EB59150B8F761E070E0C8010E946B011E
S11304008C2FDF91CF911F910F91FF90EF90089562
S11304100F931F93CF93DF938C01C62FD42F60E0EB
S113042070E00E946B01CF71C062CEBD00000DB4BC
S113043007FEFDCFCEB5DEBD00000DB407FEFDCF37
S11304408EB561E070E0C8010E946B018C2FDF91D2
S1130450CF911F910F9108951F93CF93DF93EC01D8
S113046060E070E00E946B0182EE8EBD00000DB46E
S113047007FEFDCF1EB561E070E0CE010E946B0166
S1130480812FDF91CF911F9108951F93CF93DF9315
S1130490EC0160E070E00E946B0181EE8EBD000013
S11304A00DB407FEFDCF1EB561E070E0CE010E94E1
S11304B06B01812FDF91CF911F9108951F93CF93EB
S11304C0DF93EC0160E070E00E946B018FEF8EBD62
S11304D000000DB407FEFDCF1EB561E070E0CE0153
S11304E00E946B01812FDF91CF911F910895862F78
S11304F090E0262F21701F922F93959587958770F2
S113050099279F938F9364FB882780F91F928F9379
S113051065FB882780F91F928F9366FB882780F9F3
S11305201F928F931F926F938FE591E09F938F9308
S11305300E94130C8DB79EB70E960FB6F8949EBF0B
S11305400FBE8DBF0895CF92DF92FF920F931F933A
S1130550CF93DF936C01162F072FD42FC22F862F32
S1130560972F0E940A0C089710F080E001C089E0E0
S11305701F928F930F931F938DE291E09F938F931C
S11305800E94130C0F900F900F900F900F900F90EC
S1130590CC23B1F005E211E0FF24F394FD0E6D2F9E
S11305A0C6010E94B4011F928F931F930F930E9460
S11305B0130CC150DF2D0F900F900F900F9061F727
S11305C082E291E09F938F930E94130C0F900F90FF
S11305D0DF91CF911F910F91FF90DF90CF900895FD
S11305E04F925F926F927F928F929F92AF92BF923F
S11305F0CF92DF92EF92FF920F931F93CF93DF93EB
S113060000D000D01F92CDB7DEB74C01062FF72ED5
S1130610142F522E862F972F0E940A0C089710F041
S113062080E001C089E01F928F93FF920F938AE1CB
S113063091E09F938F930E94130C0F900F900F9053
S11306400F900F900F905520B1F1CE0101963C010F
S11306500F2EF6E1AF2EF1E0BF2EF02D0F2EF1E1BB
S1130660EF2EF1E0FF2EF02D44244394410E25E0BB
S1130670A301612FC4010E948101BF92AF920E9425
S1130680130C8E010A5F1F4F63010F900F90F80146
S113069082918F011F928F93FF92EF920E94130C0D
S11306A00F900F900F900F900C151D0581F75A9421
S11306B0142D5110D9CF8EE091E09F938F930E9417
S11306C0130C0F900F900F900F900F900F900F90AE
S11306D0DF91CF911F910F91FF90EF90DF90CF901A
S11306E0BF90AF909F908F907F906F905F904F904E
S11306F00895FC016083418381E08283138280E258
S113070084831582168210861186128613861486B7
S11307101586168617860895462F603808F04FE729
S113072065E00E9408020895CF93DF93EC0160E036
S11307300E94B401482F436060E0CE010E94080289
S113074040E767E0CE010E940802288539854A8582
S11307505B856C857D858E859F85A0E00E94F80B66
S113076041F025E0AE01485F5F4F6AE0CE010E9490
S1130770D501CE010E942C02CE010E94450261E007
S113078070E0CE010E947C0182E890E00E94F10AB0
S1130790DF91CF910895AF92BF92DF92EF92FF92D3
S11307A00F931F93CF93DF93CDB7DEB728970FB680
S11307B0F894DEBF0FBECDBF5C01D62EE982FA826B
S11307C00B831C832D833E834F83588761110AC09A
S11307D0F501E086F18602871387248735874687EB
S11307E0578707C0F6E0F61708F43BC081E0861788
S11307F068F0ED2DF0E0EF54FE4F649125E0AE017A
S11308004F5F5F4FC5010E94D5010CC0E62FF0E099
S1130810EF54FE4F649121E0AE014F5F5F4FC5017D
S11308200E94D5010D2D10E0F801E555FE4F6491AD
S1130830F5014481C5010E94080262E0C5010E94DD
S1130840B401F801EB55FE4FE49141E050E002C0E1
S1130850440F551FEA95E2F7482B62E0C5010E9458
S1130860080228960FB6F894DEBF0FBECDBFDF9105
S1130870CF911F910F91FF90EF90DF90BF90AF90B9
S113088008950F931F93CF938C01C62F66E00E94A7
S1130890B401482F497FC33011F446600BC0C23005
S11308A011F4446007C0C13011F4426003C0C43085
S11308B009F4466066E0C8010E940802CF911F91C6
S11308C00F91089566E00E94B401982F96709630B7
S11308D039F0943039F081E0923029F080E00895C5
S11308E083E0089582E008950F931F93CF93DF93DD
S11308F0EC01062F66E00E94B4011A82182F177DBE
S1130900023011F4106205C0013019F481E08A83C9
S11309101860412F66E0CE010E94080266E0CE0115
S11309200E94B401181719F01A8280E001C081E016
S1130930DF91CF911F910F91089566E00E94B40159
S1130940982F9872903229F081E0983019F080E065
S1130950089582E008951F93CF93DF93EC01162F3F
S113096060E00E94B401482F437F112329F0113025
S113097011F4486001C04C6060E0CE010E9408029E
S1130980DF91CF911F910895CF93DF93EC0161E044
S113099088810E94660B61E089810E94660B0E9437
S11309A03E0960E070E0CE010E947C0161E070E0ED
S11309B0CE010E946B0165E070E080E090E00E944F
S11309C0C50A4FE464E0CE010E94080263E0CE0150
S11309D00E94410462E0CE010E947404882311F055
S11309E081E08B8360E0CE010E94740462E0CE015A
S11309F00E94AB0440E06CE1CE010E94080240E793
S1130A0067E0CE010E9408026CE4CE010E948C03D0
S1130A10CE010E942C02CE010E944502DF91CF91AB
S1130A20089560E00E94B40183FF04C082FD04C005
S1130A3081E0089580E0089582E00895CF93DF93E4
S1130A40EC010E945E02682FCE010E94770222E030
S1130A504AE061E071E0CE010E94F00224E04CE043
S1130A6064EF70E0CE010E94A30221E040E16CEE4D
S1130A7070E0CE010E94F00226E041E161EE70E0F8
S1130A80CE010E94A30221E041E06BED70E0CE01B3
S1130A900E94A30221E042E061ED70E0CE010E94D9
S1130AA0A30221E045E06BEC70E0CE010E94A302BA
S1130AB021E046E062EC70E0CE010E94A30221E056
S1130AC040E06BEB70E0CE010E94A30222E04CE117
S1130AD06DEA70E0CE010E94A302CE010E949D0443
S1130AE0E82FF0E0EE0FFF1FEF5EFD4F859194912C
S1130AF09F938F938BE990E09F938F930E94130CA5
S1130B00EB81F0E0EE0FFF1FE650FE4F85919491CC
S1130B109F938F938CE890E09F938F930E94130C84
S1130B20CE010E941105E82FF0E0EE0FFF1FE45202
S1130B30FE4F859194919F938F9389E790E09F93C3
S1130B408F930E94130CCE010E946204E82FF0E000
S1130B50EE0FFF1FE954FE4F859194919F938F935D
S1130B6088E690E09F938F930E94130C8DB79EB7F5
S1130B7040960FB6F8949EBF0FBE8DBFDF91CF9104
S1130B800895EF92FF920F931F93CF93DF9326E084
S1130B9040E855E260E070E084E391E00E942107C0
S1130BA084E291E00E94C4040F2EF1EEEF2EF02DAA
S1130BB00F2EF0EFFF2EF02D00EF18EE28EE30E0B0
S1130BC040E050E061E084E291E00E94CB0384E2E3
S1130BD091E00E941E0584E291E00E94940361E08A
S1130BE0809106010E94660B61E0809104010E94DD
S1130BF0660BC2E0D1E061E088810E94660B00E0F0
S1130C0011E061E0F80180810E94660B60E0F80168
S1130C1080810E94A50B60E088810E94A50BDF9172
S1130C20CF911F910F91FF90EF90089561E0809113
S1130C3006010E94A50B60E0809104010E94A50BAF
S1130C4006E011E0C4E0D1E064E670E080E090E00A
S1130C500E94C50A61E0F80180810E94A50B60E052
S1130C6088810E94A50B64E670E080E090E00E9419
S1130C70C50A60E0F80180810E94A50B61E08881CB
S1130C800E94A50BE1CF47E068E084E291E00E9476
S1130C9079030895FC01918D228D892F90E0805C69
S1130CA09F4F821B91098F7399270895FC01918DA1
S1130CB0828D981731F0828DE80FF11D858D90E0BB
S1130CC008958FEF9FEF0895FC01918D828D981701
S1130CD061F0828DDF01A80FB11D5D968C91928D1C
S1130CE09F5F9F73928F90E008958FEF9FEF089519
S1130CF088EE97E0892B49F080E090E0892B29F079
S1130D000E94E80781110E9400000895FC01848D6F
S1130D10DF01A80FB11DA35ABF4F8C91248D30E081
S1130D202F5F3F4F2F733078332334F42150310930
S1130D30206C3F6F2F5F3F4F248FA689B7898C9318
S1130D40A089B1898C9180648C93938D848D981340
S1130D5006C00288F389E02D80818F7D8083089509
S1130D60CF93DF93EC01888D81110FC018C00FB6AB
S1130D7007FC0DC0908195FF0AC0A889B9898C91A0
S1130D8085FF05C0CE010E948606EA89FB89908111
S1130D9095FDEDCFA889B9898C9186FFE8CFDF91C5
S1130DA0CF9108950F931F93CF93DF93FC0181E0BC
S1130DB0808F938D848D981322C0A089B1898C91E2
S1130DC085FD2FC01CC00FB607FC08C0E889F9894F
S1130DD0808185FF03C0CE010E9486069C8D091781
S1130DE091F38B8DFE01E80FF11DE35AFF4F108341
S1130DF00B8FEA89FB898081806280831BC0238DED
S1130E0030E02F5F3F4F2F733078332334F4215079
S1130E103109206C3F6F2F5F3F4F162FEF01022FD8
S1130E20DDCFA689B7896C930088F189E02D808194
S1130E308064808381E090E0DF91CF911F910F91D6
S1130E400895BF92CF92DF92EF92FF920F931F9378
S1130E50CF93DF93EC016A017B01B22EE889F98913
S1130E6082E080834115514E61057105B1F060E067
S1130E7079E08DE390E0A70196010E94D60B8901E9
S1130E809A010150110921093109369527951795C1
S1130E900795011580E11807A8F0E889F9891082FF
S1130EA060E874E88EE190E0A70196010E94D60BF9
S1130EB0DA01C9010197A109B109B695A7959795DA
S1130EC087958C01EC85FD851083EE85FF85008375
S1130ED0188EEC89FD89B082EA89FB898081806162
S1130EE08083EA89FB89808188608083EA89FB8921
S1130EF0808180688083EA89FB8980818F7D8083FB
S1130F00DF91CF911F910F91FF90EF90DF90CF90E1
S1130F10BF9008951F920F920FB60F9211242F9332
S1130F208F939F93AF93BF93EF93FF93E09144010B
S1130F30F0914501808182FD14C0E4E3F1E0A689CB
S1130F40B7892C91818D8F5F8F73928D891771F082
S1130F50DF01E18DF0E0EC5CFE4F258F59968C9318
S1130F6005C0E0914A01F0914B018081FF91EF911E
S1130F70BF91AF919F918F912F910F900FBE0F90C2
S1130F801F9018951F920F920FB60F9211242F9352
S1130F903F934F935F936F937F938F939F93AF93FD
S1130FA0BF93EF93FF9384E391E00E948606FF9141
S1130FB0EF91BF91AF919F918F917F916F915F91CD
S1130FC04F913F912F910F900FBE0F901F90189546
S1130FD084E391E00E944A0621E0892B09F420E091
S1130FE0822F0895E4E3F1E01382128288EE93E005
S1130FF0A0E0B0E084839583A683B78381E191E088
S11310009183808385EC90E09587848784EC90E0DD
S11310109787868780EC90E0918B808B81EC90E0C1
S1131020938B828B82EC90E0958B848B86EC90E0A2
S1131030978B868B118E128E138E148E08950895BD
S11310408F929F92AF92BF92CF92DF92EF92FF92D4
S11310500F931F93CF93DF935C017B014C0182E0DC
S1131060880E911C6501E5E0CE0ED11C00E010E075
S1131070F40161914F014AE050E0C7010E94360932
S1131080EC016EE2C7010E94AC088C0F9D1F080F93
S1131090191F8C149D0461F74AE050E0F501658145
S11310A0C7010E943609800F911FDF91CF911F91D4
S11310B00F91FF90EF90DF90CF90BF90AF909F90F3
S11310C08F900895E1EDF1E081E291E091838083D6
S11310D01282138214821582089508950E94FC0AD4
S11310E00E946D080E94C105C8E7D6E00E9416065A
S11310F02097E1F30E947806F9CFCF92DF92EF9226
S1131100FF920F931F93CF93DF9341155105C1F0C5
S11311106A018C01E62EF72EC0E0D0E0D7016D9174
S11311207D01D801ED91FC910190F081E02DC80181
S11311300995892B39F02196CC16DD0679F702C082
S1131140C0E0D0E0CE01DF91CF911F910F91FF90CD
S1131150EF90DF90CF900895DC01ED91FC91019028
S1131160F081E02D099508954F925F926F927F92DE
S11311709F92AF92BF92CF92DF92EF92FF920F9322
S11311801F93CF93DF93CDB7DEB7A1970FB6F89433
S1131190DEBF0FBECDBF5C016A017B01922E19A296
S11311A081E0821720F00F2EFAE09F2EF02D8E01A1
S11311B00F5D1F4F492C512C612C712CC701B601B6
S11311C0A30192010E94D60B8C2D929E80191124AA
S11311D0015011098A3010F4805D01C0895CD80186
S11311E08C93C22ED32EE42EF52EC114D104E10427
S11311F0F10421F70115110591F0F8010190002087
S1131200E9F73197AF01401B510BD501ED91FC91EA
S11312100280F381E02DB801C501099502C080E088
S113122090E0A1960FB6F894DEBF0FBECDBFDF915C
S1131230CF911F910F91FF90EF90DF90CF90BF90CF
S1131240AF909F907F906F905F904F90089521157D
S1131250310549F4DC01ED91FC910190F081E02D20
S1131260642F099508950E94B40808959A01462FA1
S113127050E060E070E00E9427090895CF93CFB753
S1131280F8948091D701811127C0EEE5F2E08491B2
S1131290EAE4F2E09491E82FF0E0EE0FFF1FEE583D
S11312A0FD4FA591B491EC91E92321F461E08AE02A
S11312B00E94A50B61E08AE00E94660B8CB58061F8
S11312C08CBD8CB580648CBD61E08DE00E94660BA2
S11312D061E08BE00E94660B8091D7018F5F809361
S11312E0D701CFBFCF910895813039F018F0823003
S11312F051F0089510926E000895EFE6F0E08081B9
S11313008D7F80830895E0E7F0E080818D7F808386
S113131081E08093B000E1EBF0E08081887F84601D
S113132080831092B3000895CF93C82F8091080151
S11313308C1307C0EBE2F2E084919FEF90930801D5
S113134001C08FEF0E94740960E08C2F0E94A50BEE
S1131350CF9108951F920F920FB60F9211242F93DD
S11313603F934F935F936F937F938F939F93AF9329
S1131370BF93EF93FF938091DB019091DC01A091E7
S1131380DD01B091DE01892B8A2B8B2B51F18091E9
S1131390D801E091D901F091DA0190818927808305
S11313A08091DB019091DC01A091DD01B091DE011F
S11313B0181619061A061B06C4F48091DB019091D5
S11313C0DC01A091DD01B091DE010197A109B10911
S11313D08093DB019093DC01A093DD01B093DE01E7
S11313E004C0809108010E949409FF91EF91BF917C
S11313F0AF919F918F917F916F915F914F913F91A9
S11314002F910F900FBE0F901F90189508951F9263
S11314100F920FB60F9211242F933F934F935F9324
S11314206F937F938F939F93AF93BF93EF93FF93A8
S1131430E0910901F0910A010995FF91EF91BF91A3
S1131440AF919F918F917F916F915F914F913F9158
S11314502F910F900FBE0F901F9018951F920F920F
S11314600FB60F9211242F933F934F935F936F9373
S11314707F938F939F93AF93BF93EF93FF93E091E9
S11314800B01F0910C010995FF91EF91BF91AF9180
S11314909F918F917F916F915F914F913F912F9188
S11314A00F900FBE0F901F9018951F920F920FB6BA
S11314B00F9211242F933F938F939F93AF93BF93D6
S11314C08091E0019091E101A091E201B091E301EA
S11314D03091DF0123E0230F2D3720F40196A11D65
S11314E0B11D05C026E8230F0296A11DB11D20934E
S11314F0DF018093E0019093E101A093E201B093B6
S1131500E3018091E4019091E501A091E601B0919D
S1131510E7010196A11DB11D8093E4019093E501BB
S1131520A093E601B093E701BF91AF919F918F9192
S11315303F912F910F900FBE0F901F9018953FB7BA
S1131540F8948091E4019091E501A091E601B091B5
S1131550E70126B5A89B05C02F3F19F00196A11DF0
S1131560B11D3FBFBA2FA92F982F8827820F911D35
S1131570A11DB11DBC01CD01660F771F881F991FE6
S1131580660F771F881F991F0895CF92DF92EF92FD
S1131590FF92CF93DF936B017C010E949F0AEB01C2
S11315A0C114D104E104F104A9F00E941F080E94AF
S11315B09F0A6C1B7D0B683E734038F081E0C81AAB
S11315C0D108E108F108C851DC4FC114D104E10489
S11315D0F10459F7DF91CF91FF90EF90DF90CF9016
S11315E008958230910538F0880F991F880F991F4C
S11315F005970197F1F70895789484B5826084BDC6
S113160084B5816084BD85B5826085BD85B5816002
S113161085BDEEE6F0E0808181608083E1E8F0E062
S11316201082808182608083808181608083E0E891
S1131630F0E0808181608083E1EBF0E08081846070
S11316408083E0EBF0E0808181608083EAE7F0E072
S113165080818460808380818260808380818160D6
S113166080838081806880831092C10008958330D4
S113167069F028F48130B1F08230C1F008958730E8
S1131680C9F08830E9F0843001F506C0E0E8F0E004
S113169080818F7780830895E0E8F0E080818F7DFA
S11316A08083089584B58F7784BD089584B58F7D34
S11316B084BD0895E0EBF0E080818F778083089506
S11316C0E0EBF0E080818F7D80830895CF93DF93FA
S11316D090E0FC01E05CFD4F2491FC01EC5AFD4FCD
S11316E08491882379F190E0880F991FFC01EE58CA
S11316F0FD4FA591B491FC01E859FD4FC591D491DA
S113170061110CC09FB7F8948C91E22FE0958E2361
S11317108C932881E223E8839FBF14C0623061F474
S11317209FB7F8943C91822F809583238C93E88112
S1131730E22BE8839FBF06C08FB7F894EC91E22BAD
S1131740EC938FBFDF91CF9108951F93CF93DF93D5
S1131750282F30E0F901E45DFD4F8491F901E05C4C
S1131760FD4F1491F901EC5AFD4FC491CC23D1F0F3
S1131770D62F81110E94370BEC2FF0E0EE0FFF1FE4
S1131780E859FD4FA591B4918FB7F894D11106C0D3
S11317909C91E12FE095E923EC9303C0EC91E12BBC
S11317A0EC938FBFDF91CF911F910895A1E21A2E80
S11317B0AA1BBB1BFD010DC0AA1FBB1FEE1FFF1FF1
S11317C0A217B307E407F50720F0A21BB30BE40B41
S11317D0F50B661F771F881F991F1A9469F7609588
S11317E07095809590959B01AC01BD01CF01089542
S11317F00024A7FD00942A17300540055005600514
S11318007005800590050895EE0FFF1F0590F49173
S1131810E02D0994FC0105900020E9F7809590954E
S11318208E0F9F1F0895A0E0B0E0E9E1FCE00C9466
S1131830C50EAE01495F5F4FDA016D917D91AD0137
S113184008EE11E0F80182819381DC0113962C915A
S11318501397286013962C930E94390CD801129682
S1131860ED91FC9113972381277F2383E4E00C946B
S1131870E10EACE0B0E0EFE3FCE00C94B70E7C01C9
S11318806B018A01FC0117821682838181FFBDC12D
S1131890CE0101964C01F7019381F60193FD8591E8
S11318A093FF81916F01882309F4ABC1853239F428
S11318B093FD859193FF81916F01853229F4B701DE
S11318C090E00E94210EE7CF512C312C20E02032F1
S11318D0A0F48B3269F030F4803259F0833269F429
S11318E020612CC08D3239F0803339F4216026C058
S11318F02260246023C0286021C027FD27C030ED6A
S1131900380F3A3078F426FF06C0FAE05F9E300DB7
S11319101124532E13C08AE0389E300D1124332E27
S113192020620CC08E3221F426FD6BC1206406C0F7
S11319308C3611F4206802C0883641F4F60193FD18
S1131940859193FF81916F018111C1CF982F9F7D64
S11319509554933028F40C5F1F4FFFE3F9830DC0B7
S1131960833631F0833771F0833509F05BC022C0D0
S1131970F801808189830E5F1F4F44244394512CC6
S1131980540115C03801F2E06F0E711CF801A080FB
S1131990B18026FF03C0652D70E002C06FEF7FEFBA
S11319A0C5012C870E94160E2C0183012C852F77EC
S11319B0222E17C03801F2E06F0E711CF801A080CE
S11319C0B18026FF03C0652D70E002C06FEF7FEF8A
S11319D0C5012C870E940B0E2C012C852068222E19
S11319E0830123FC1BC0832D90E048165906B0F4F4
S11319F0B70180E290E00E94210E3A94F4CFF50101
S1131A0027FC859127FE81915F01B70190E00E9438
S1131A10210E31103A94F1E04F1A51084114510447
S1131A2071F7E5C0843611F0893639F5F80127FFDE
S1131A3007C060817181828193810C5F1F4F08C050
S1131A4060817181072E000C880B990B0E5F1F4F6C
S1131A502F76722E97FF09C09095809570956195A9
S1131A607F4F8F4F9F4F2068722E2AE030E0A401F1
S1131A700E94590EA82EA81844C0853729F42F7E39
S1131A80B22E2AE030E025C0F22FF97FBF2E8F3628
S1131A90C1F018F4883579F0B4C0803719F088376C
S1131AA021F0AFC02F2F2061B22EB4FE0DC08B2DBC
S1131AB08460B82E09C024FF0AC09F2F9660B92EF7
S1131AC006C028E030E005C020E130E002C020E19B
S1131AD032E0F801B7FE07C0608171818281938191
S1131AE00C5F1F4F06C06081718180E090E00E5F43
S1131AF01F4FA4010E94590EA82EA818FB2DFF7792
S1131B007F2E76FE0BC0372D3E7FA51450F474FE55
S1131B100AC072FC08C0372D3E7E05C0BA2C372D92
S1131B2003C0BA2C01C0B52C34FF0DC0FE01EA0D70
S1131B30F11D8081803311F4397E09C032FF06C063
S1131B40B394B39404C0832F867809F0B39433FD1F
S1131B5013C030FF06C05A2CB31418F4530C5B188E
S1131B60B32CB31468F4B70180E290E03C870E9480
S1131B70210EB3943C85F5CFB31410F43B1801C087
S1131B80312C34FF12C0B70180E390E03C870E94FF
S1131B90210E3C8532FF17C031FD03C088E790E079
S1131BA002C088E590E0B7010CC0832F867859F015
S1131BB031FF02C08BE201C080E237FD8DE2B70144
S1131BC090E00E94210EA51438F4B70180E390E060
S1131BD00E94210E5A94F7CFAA94F401EA0DF11D44
S1131BE08081B70190E00E94210EA110F5CF33202F
S1131BF009F451CEB70180E290E00E94210E3A949C
S1131C00F6CFF7018681978102C08FEF9FEF2C9664
S1131C10E2E10C94D30EFC01059061507040011078
S1131C20D8F7809590958E0F9F1F0895FC01615001
S1131C30704001900110D8F7809590958E0F9F1FEA
S1131C4008950F931F93CF93DF93FB01238121FD0D
S1131C5003C08FEF9FEF28C022FF16C04681578133
S1131C60248135814217530744F4A081B1819D0139
S1131C702F5F3F4F318320838C93268137812F5FE1
S1131C803F4F3783268310C0EB01092F182F0084A0
S1131C90F185E02D0995892BE1F68E819F810196CE
S1131CA09F838E83812F902FDF91CF911F910F916E
S1131CB00895FA01AA27283051F1203181F1E894DE
S1131CC06F936E7F6E5F7F4F8F4F9F4FAF4FB1E02B
S1131CD03ED0B4E03CD0670F781F891F9A1FA11D26
S1131CE0680F791F8A1F911DA11D6A0F711D811D27
S1131CF0911DA11D20D009F468943F912AE0269FEC
S1131D0011243019305D3193DEF6CF010895462F4A
S1131D104770405D4193B3E00FD0C9F7F6CF462F2B
S1131D204F70405D4A3318F0495D31FD4052419394
S1131D3002D0A9F7EACFB4E0A69597958795779551
S1131D406795BA95C9F700976105710508959B01D8
S1131D50AC010A2E06945795479537952795BA9561
S1131D60C9F7620F731F841F951FA01D08952F923A
S1131D703F924F925F926F927F928F929F92AF9217
S1131D80BF92CF92DF92EF92FF920F931F93CF9364
S1131D90DF93CDB7DEB7CA1BDB0B0FB6F894DEBFFB
S1131DA00FBECDBF09942A88398848885F846E8421
S1131DB07D848C849B84AA84B984C884DF80EE806B
S1131DC0FD800C811B81AA81B981CE0FD11D0FB674
S1131DD0F894DEBF0FBECDBFED010895F894FFCF98
S1131DE00500030004000600FF060A060A000000BE
S1131DF000D2067D084A0664065606B006000000B6
S1071E0000200800B2
S9030000FC
